{
  "abi": [
    {
      "inputs": [],
      "stateMutability": "nonpayable",
      "type": "constructor"
    },
    {
      "stateMutability": "payable",
      "type": "fallback"
    },
    {
      "inputs": [],
      "name": "activeToggle",
      "outputs": [],
      "stateMutability": "nonpayable",
      "type": "function"
    },
    {
      "inputs": [
        {
          "internalType": "uint256",
          "name": "",
          "type": "uint256"
        }
      ],
      "name": "claimedBurnAmount",
      "outputs": [
        {
          "internalType": "uint256",
          "name": "",
          "type": "uint256"
        }
      ],
      "stateMutability": "view",
      "type": "function"
    },
    {
      "inputs": [
        {
          "internalType": "uint256",
          "name": "",
          "type": "uint256"
        }
      ],
      "name": "funders",
      "outputs": [
        {
          "internalType": "address",
          "name": "",
          "type": "address"
        }
      ],
      "stateMutability": "view",
      "type": "function"
    },
    {
      "inputs": [],
      "name": "getFunder",
      "outputs": [
        {
          "internalType": "bool",
          "name": "funder",
          "type": "bool"
        }
      ],
      "stateMutability": "view",
      "type": "function"
    },
    {
      "inputs": [],
      "name": "getIndex",
      "outputs": [
        {
          "internalType": "uint256",
          "name": "index",
          "type": "uint256"
        }
      ],
      "stateMutability": "view",
      "type": "function"
    },
    {
      "inputs": [],
      "name": "getWhitelisted",
      "outputs": [
        {
          "internalType": "bool",
          "name": "whiteListed",
          "type": "bool"
        }
      ],
      "stateMutability": "view",
      "type": "function"
    },
    {
      "inputs": [
        {
          "internalType": "uint256",
          "name": "amount",
          "type": "uint256"
        }
      ],
      "name": "redeem",
      "outputs": [],
      "stateMutability": "nonpayable",
      "type": "function"
    },
    {
      "inputs": [
        {
          "internalType": "address",
          "name": "receiver",
          "type": "address"
        },
        {
          "internalType": "uint256",
          "name": "amount",
          "type": "uint256"
        }
      ],
      "name": "sendSpice",
      "outputs": [],
      "stateMutability": "nonpayable",
      "type": "function"
    },
    {
      "inputs": [
        {
          "internalType": "address",
          "name": "tokenAddress",
          "type": "address"
        }
      ],
      "name": "setSpiceTokenAddressREMOVEME",
      "outputs": [],
      "stateMutability": "nonpayable",
      "type": "function"
    },
    {
      "inputs": [
        {
          "internalType": "uint256[]",
          "name": "newClaimedBurnAmount",
          "type": "uint256[]"
        }
      ],
      "name": "updateClaimedBurnAmount",
      "outputs": [],
      "stateMutability": "nonpayable",
      "type": "function"
    },
    {
      "inputs": [
        {
          "internalType": "uint256",
          "name": "newSpiceValue",
          "type": "uint256"
        }
      ],
      "name": "updateSpiceValue",
      "outputs": [],
      "stateMutability": "nonpayable",
      "type": "function"
    },
    {
      "inputs": [
        {
          "internalType": "address[]",
          "name": "newWhitelist",
          "type": "address[]"
        }
      ],
      "name": "updateWhitelist",
      "outputs": [],
      "stateMutability": "nonpayable",
      "type": "function"
    },
    {
      "inputs": [
        {
          "internalType": "uint256",
          "name": "",
          "type": "uint256"
        }
      ],
      "name": "whiteList",
      "outputs": [
        {
          "internalType": "address",
          "name": "",
          "type": "address"
        }
      ],
      "stateMutability": "view",
      "type": "function"
    }
  ],
  "bytecode": {
    "object": "0x600080546001600160a01b031916739b6db7597a74602a5a806e33408e7e2dafa581931790556445d964b800600290815560c060405260016080908152739b5c1305a13637d473535b4bf306351212a2387d60a05261006191600391906100e8565b5060408051808201909152620f4240808252602082015261008690600490600261014d565b5034801561009357600080fd5b5060018054336001600160a01b0319918216811783556005805493840181556000527f036b6384b5eca791c62761152d0c79bb0604c104a5fb6f4eb0703f3154bb3db0909201805490911690911790556101a4565b82805482825590600052602060002090810192821561013d579160200282015b8281111561013d57825182546001600160a01b0319166001600160a01b03909116178255602090920191600190910190610108565b5061014992915061018f565b5090565b82805482825590600052602060002090810192821561013d579160200282015b8281111561013d578251829062ffffff1690559160200191906001019061016d565b5b808211156101495760008155600101610190565b610dcc806101b36000396000f3fe6080604052600436106100c25760003560e01c80638abb98451161007f578063ac6a990f11610059578063ac6a990f1461024c578063db006a7514610261578063dc0d3dff14610281578063e315283e146102a1576100c2565b80638abb9845146101f25780639b372b2b14610217578063a072773f1461022c576100c2565b80633537721414610112578063518b314a146101325780635c475d42146101525780636a14254c1461018f57806378087cc5146101af57806381045ead146101dd575b6100ca6102c1565b15156001146101105760405162461bcd60e51b815260206004820152600d60248201526c4e6f7420612066756e6465722160981b60448201526064015b60405180910390fd5b005b34801561011e57600080fd5b5061011061012d366004610b65565b610328565b34801561013e57600080fd5b5061011061014d366004610c02565b610369565b34801561015e57600080fd5b5061017261016d366004610c24565b6103b5565b6040516001600160a01b0390911681526020015b60405180910390f35b34801561019b57600080fd5b506101106101aa366004610c24565b6103df565b3480156101bb57600080fd5b506101cf6101ca366004610c24565b61040e565b604051908152602001610186565b3480156101e957600080fd5b506101cf61042f565b3480156101fe57600080fd5b506102076102c1565b6040519015158152602001610186565b34801561022357600080fd5b506102076104d7565b34801561023857600080fd5b50610110610247366004610c3d565b610536565b34801561025857600080fd5b50610110610573565b34801561026d57600080fd5b5061011061027c366004610c24565b6105be565b34801561028d57600080fd5b5061017261029c366004610c24565b610977565b3480156102ad57600080fd5b506101106102bc366004610cc3565b610987565b6000805b60055481101561032057336001600160a01b0316600582815481106102ec576102ec610ced565b6000918252602090912001546001600160a01b03160361030e57600191505090565b8061031881610d19565b9150506102c5565b506000905090565b6001546001600160a01b031633146103525760405162461bcd60e51b815260040161010790610d32565b8051610365906003906020840190610a2d565b5050565b6001546001600160a01b031633146103935760405162461bcd60e51b815260040161010790610d32565b600080546001600160a01b0319166001600160a01b0392909216919091179055565b600381815481106103c557600080fd5b6000918252602090912001546001600160a01b0316905081565b6001546001600160a01b031633146104095760405162461bcd60e51b815260040161010790610d32565b600255565b6004818154811061041e57600080fd5b600091825260209091200154905081565b60006104396104d7565b6104785760405162461bcd60e51b815260206004820152601060248201526f139bdd0813db8815da1a5d195b1a5cdd60821b6044820152606401610107565b60005b6003548110156104d357336001600160a01b0316600382815481106104a2576104a2610ced565b6000918252602090912001546001600160a01b0316036104c157919050565b806104cb81610d19565b91505061047b565b5090565b6000805b60035481101561032057336001600160a01b03166003828154811061050257610502610ced565b6000918252602090912001546001600160a01b03160361052457600191505090565b8061052e81610d19565b9150506104db565b6001546001600160a01b031633146105605760405162461bcd60e51b815260040161010790610d32565b8051610365906004906020840190610a8e565b6001546001600160a01b0316331461059d5760405162461bcd60e51b815260040161010790610d32565b6001805460ff60a81b198116600160a81b9182900460ff1615909102179055565b600154600160a01b900460ff16156106095760405162461bcd60e51b815260206004820152600e60248201526d4e6f2072652d656e7472616e637960901b6044820152606401610107565b6001805460ff60a01b1916600160a01b1790819055600160a81b900460ff166106835760405162461bcd60e51b815260206004820152602660248201527f526564656d7074696f6e206973206e6f742063757272656e746c7920617661696044820152656c61626c652160d01b6064820152608401610107565b600047116106df5760405162461bcd60e51b815260206004820152602360248201527f4f7574206f662046756e64696e672120506c65617365204e6f74696679205465604482015262616d2160e81b6064820152608401610107565b6106e76104d7565b6107265760405162461bcd60e51b815260206004820152601060248201526f4e6f742057686974656c69737465642160801b6044820152606401610107565b600061073061042f565b90506004818154811061074557610745610ced565b90600052602060002001548211156107af5760405162461bcd60e51b815260206004820152602760248201527f416d6f756e742047726561746572207468616e20436c61696d6564204275726e60448201526608105b5bdd5b9d60ca1b6064820152608401610107565b600080546040516323b872dd60e01b815233600482015261dead6024820152604481018590526001600160a01b03909116906323b872dd906064016020604051808303816000875af1158015610809573d6000803e3d6000fd5b505050506040513d601f19601f8201168201806040525081019061082d9190610d55565b90508061087c5760405162461bcd60e51b815260206004820152601860248201527f4661696c656420746f20526563656976652024535049434500000000000000006044820152606401610107565b6004828154811061088f5761088f610ced565b9060005260206000200160009055600382815481106108b0576108b0610ced565b6000918252602082200180546001600160a01b0319169055600254819033906108d99087610d77565b604051600081818185875af1925050503d8060008114610915576040519150601f19603f3d011682016040523d82523d6000602084013e61091a565b606091505b5091509150816109635760405162461bcd60e51b81526020600482015260146024820152732330b4b632b2103a379039b2b7321022ba3432b960611b6044820152606401610107565b50506001805460ff60a01b19169055505050565b600581815481106103c557600080fd5b6001546001600160a01b031633146109b15760405162461bcd60e51b815260040161010790610d32565b60005460405163a9059cbb60e01b81526001600160a01b038481166004830152602482018490529091169063a9059cbb906044016020604051808303816000875af1158015610a04573d6000803e3d6000fd5b505050506040513d601f19601f82011682018060405250810190610a289190610d55565b505050565b828054828255906000526020600020908101928215610a82579160200282015b82811115610a8257825182546001600160a01b0319166001600160a01b03909116178255602090920191600190910190610a4d565b506104d3929150610ac9565b828054828255906000526020600020908101928215610a82579160200282015b82811115610a82578251825591602001919060010190610aae565b5b808211156104d35760008155600101610aca565b634e487b7160e01b600052604160045260246000fd5b604051601f8201601f1916810167ffffffffffffffff81118282101715610b1d57610b1d610ade565b604052919050565b600067ffffffffffffffff821115610b3f57610b3f610ade565b5060051b60200190565b80356001600160a01b0381168114610b6057600080fd5b919050565b60006020808385031215610b7857600080fd5b823567ffffffffffffffff811115610b8f57600080fd5b8301601f81018513610ba057600080fd5b8035610bb3610bae82610b25565b610af4565b81815260059190911b82018301908381019087831115610bd257600080fd5b928401925b82841015610bf757610be884610b49565b82529284019290840190610bd7565b979650505050505050565b600060208284031215610c1457600080fd5b610c1d82610b49565b9392505050565b600060208284031215610c3657600080fd5b5035919050565b60006020808385031215610c5057600080fd5b823567ffffffffffffffff811115610c6757600080fd5b8301601f81018513610c7857600080fd5b8035610c86610bae82610b25565b81815260059190911b82018301908381019087831115610ca557600080fd5b928401925b82841015610bf757833582529284019290840190610caa565b60008060408385031215610cd657600080fd5b610cdf83610b49565b946020939093013593505050565b634e487b7160e01b600052603260045260246000fd5b634e487b7160e01b600052601160045260246000fd5b600060018201610d2b57610d2b610d03565b5060010190565b6020808252600990820152682737ba1037bbb732b960b91b604082015260600190565b600060208284031215610d6757600080fd5b81518015158114610c1d57600080fd5b6000816000190483118215151615610d9157610d91610d03565b50029056fea26469706673582212207aba330a4f45bc6f42d929c7d5e7c8669e03d3cc556f21bda663240ace4914bc64736f6c634300080d0033",
    "linkReferences": {}
  },
  "methodIdentifiers": {
    "activeToggle()": "ac6a990f",
    "claimedBurnAmount(uint256)": "78087cc5",
    "funders(uint256)": "dc0d3dff",
    "getFunder()": "8abb9845",
    "getIndex()": "81045ead",
    "getWhitelisted()": "9b372b2b",
    "redeem(uint256)": "db006a75",
    "sendSpice(address,uint256)": "e315283e",
    "setSpiceTokenAddressREMOVEME(address)": "518b314a",
    "updateClaimedBurnAmount(uint256[])": "a072773f",
    "updateSpiceValue(uint256)": "6a14254c",
    "updateWhitelist(address[])": "35377214",
    "whiteList(uint256)": "5c475d42"
  },
  "id": 11
}