{
  "abi": [
    {
      "inputs": [],
      "stateMutability": "nonpayable",
      "type": "constructor"
    },
    {
      "inputs": [],
      "name": "activeToggle",
      "outputs": [],
      "stateMutability": "nonpayable",
      "type": "function"
    },
    {
      "inputs": [
        {
          "internalType": "address",
          "name": "",
          "type": "address"
        }
      ],
      "name": "approvedAmount",
      "outputs": [
        {
          "internalType": "uint256",
          "name": "",
          "type": "uint256"
        }
      ],
      "stateMutability": "view",
      "type": "function"
    },
    {
      "inputs": [
        {
          "internalType": "uint256",
          "name": "",
          "type": "uint256"
        }
      ],
      "name": "claimedBurnAmount",
      "outputs": [
        {
          "internalType": "uint256",
          "name": "",
          "type": "uint256"
        }
      ],
      "stateMutability": "view",
      "type": "function"
    },
    {
      "inputs": [],
      "name": "getIndex",
      "outputs": [
        {
          "internalType": "uint256",
          "name": "index",
          "type": "uint256"
        }
      ],
      "stateMutability": "view",
      "type": "function"
    },
    {
      "inputs": [],
      "name": "getWhitelisted",
      "outputs": [
        {
          "internalType": "bool",
          "name": "whiteListed",
          "type": "bool"
        }
      ],
      "stateMutability": "view",
      "type": "function"
    },
    {
      "inputs": [
        {
          "internalType": "uint256",
          "name": "amount",
          "type": "uint256"
        }
      ],
      "name": "redeem",
      "outputs": [],
      "stateMutability": "payable",
      "type": "function"
    },
    {
      "inputs": [
        {
          "internalType": "address",
          "name": "receiver",
          "type": "address"
        },
        {
          "internalType": "uint256",
          "name": "amount",
          "type": "uint256"
        }
      ],
      "name": "sendSpice",
      "outputs": [],
      "stateMutability": "nonpayable",
      "type": "function"
    },
    {
      "inputs": [
        {
          "internalType": "address",
          "name": "tokenAddress",
          "type": "address"
        }
      ],
      "name": "setSpiceTokenAddress",
      "outputs": [],
      "stateMutability": "nonpayable",
      "type": "function"
    },
    {
      "inputs": [
        {
          "internalType": "uint256[]",
          "name": "newClaimedBurnAmount",
          "type": "uint256[]"
        }
      ],
      "name": "updateClaimedBurnAmount",
      "outputs": [],
      "stateMutability": "nonpayable",
      "type": "function"
    },
    {
      "inputs": [
        {
          "internalType": "uint256",
          "name": "newSpiceValue",
          "type": "uint256"
        }
      ],
      "name": "updateSpiceValue",
      "outputs": [],
      "stateMutability": "nonpayable",
      "type": "function"
    },
    {
      "inputs": [
        {
          "internalType": "address[]",
          "name": "newWhitelist",
          "type": "address[]"
        }
      ],
      "name": "updateWhitelist",
      "outputs": [],
      "stateMutability": "nonpayable",
      "type": "function"
    },
    {
      "inputs": [
        {
          "internalType": "uint256",
          "name": "",
          "type": "uint256"
        }
      ],
      "name": "whiteList",
      "outputs": [
        {
          "internalType": "address",
          "name": "",
          "type": "address"
        }
      ],
      "stateMutability": "view",
      "type": "function"
    }
  ],
  "bytecode": {
    "object": "0x6000805461ff00191690556445d964b800600190815560a0604052608081815261002c9160029190610097565b506040805160208101909152620f4240815261004c9060039060016100fc565b50600680546001600160a01b031916739b6db7597a74602a5a806e33408e7e2dafa5819317905534801561007f57600080fd5b50600480546001600160a01b03191633179055610153565b8280548282559060005260206000209081019282156100ec579160200282015b828111156100ec57825182546001600160a01b0319166001600160a01b039091161782556020909201916001909101906100b7565b506100f892915061013e565b5090565b8280548282559060005260206000209081019282156100ec579160200282015b828111156100ec578251829062ffffff1690559160200191906001019061011c565b5b808211156100f8576000815560010161013f565b610c0c806101626000396000f3fe6080604052600436106100a75760003560e01c8063a072773f11610064578063a072773f14610193578063ac6a990f146101b3578063db006a75146101c8578063e315283e146101db578063ee0446b2146101fb578063f09535ad1461022857600080fd5b806335377214146100ac5780635c475d42146100ce5780636a14254c1461010b57806378087cc51461012b57806381045ead146101595780639b372b2b1461016e575b600080fd5b3480156100b857600080fd5b506100cc6100c73660046109a5565b610265565b005b3480156100da57600080fd5b506100ee6100e9366004610a42565b6102af565b6040516001600160a01b0390911681526020015b60405180910390f35b34801561011757600080fd5b506100cc610126366004610a42565b6102d9565b34801561013757600080fd5b5061014b610146366004610a42565b610308565b604051908152602001610102565b34801561016557600080fd5b5061014b610329565b34801561017a57600080fd5b50610183610389565b6040519015158152602001610102565b34801561019f57600080fd5b506100cc6101ae366004610a5b565b6103f0565b3480156101bf57600080fd5b506100cc61042d565b6100cc6101d6366004610a42565b610474565b3480156101e757600080fd5b506100cc6101f6366004610ae1565b6107c7565b34801561020757600080fd5b5061014b610216366004610b0b565b60056020526000908152604090205481565b34801561023457600080fd5b506100cc610243366004610b0b565b600680546001600160a01b0319166001600160a01b0392909216919091179055565b6004546001600160a01b031633146102985760405162461bcd60e51b815260040161028f90610b2d565b60405180910390fd5b80516102ab90600290602084019061086d565b5050565b600281815481106102bf57600080fd5b6000918252602090912001546001600160a01b0316905081565b6004546001600160a01b031633146103035760405162461bcd60e51b815260040161028f90610b2d565b600155565b6003818154811061031857600080fd5b600091825260209091200154905081565b6000805b60025481101561038557336001600160a01b03166002828154811061035457610354610b50565b6000918252602090912001546001600160a01b03160361037357919050565b8061037d81610b7c565b91505061032d565b5090565b6000805b6002548110156103e857336001600160a01b0316600282815481106103b4576103b4610b50565b6000918252602090912001546001600160a01b0316036103d657600191505090565b806103e081610b7c565b91505061038d565b506000905090565b6004546001600160a01b0316331461041a5760405162461bcd60e51b815260040161028f90610b2d565b80516102ab9060039060208401906108ce565b6004546001600160a01b031633146104575760405162461bcd60e51b815260040161028f90610b2d565b6000805461ff001981166101009182900460ff1615909102179055565b60005460ff16156104b85760405162461bcd60e51b815260206004820152600e60248201526d4e6f2072652d656e7472616e637960901b604482015260640161028f565b6000805460ff191660011790819055610100900460ff1661052a5760405162461bcd60e51b815260206004820152602660248201527f526564656d7074696f6e206973206e6f742063757272656e746c7920617661696044820152656c61626c652160d01b606482015260840161028f565b610532610389565b6105715760405162461bcd60e51b815260206004820152601060248201526f4e6f742057686974656c69737465642160801b604482015260640161028f565b600061057b610329565b90506003818154811061059057610590610b50565b90600052602060002001548211156105fa5760405162461bcd60e51b815260206004820152602760248201527f416d6f756e742047726561746572207468616e20436c61696d6564204275726e60448201526608105b5bdd5b9d60ca1b606482015260840161028f565b6006546040516323b872dd60e01b815233600482015261dead6024820152604481018490526000916001600160a01b0316906323b872dd906064016020604051808303816000875af1158015610654573d6000803e3d6000fd5b505050506040513d601f19601f820116820180604052508101906106789190610b95565b9050806106c75760405162461bcd60e51b815260206004820152601860248201527f4661696c656420746f2052656365697665202453504943450000000000000000604482015260640161028f565b600080336001600160a01b0316600154866106e29190610bb7565b604051600081818185875af1925050503d806000811461071e576040519150601f19603f3d011682016040523d82523d6000602084013e610723565b606091505b50915091508161076c5760405162461bcd60e51b81526020600482015260146024820152732330b4b632b2103a379039b2b7321022ba3432b960611b604482015260640161028f565b6003848154811061077f5761077f610b50565b9060005260206000200160009055600284815481106107a0576107a0610b50565b6000918252602082200180546001600160a01b0319169055805460ff191690555050505050565b6004546001600160a01b031633146107f15760405162461bcd60e51b815260040161028f90610b2d565b60065460405163a9059cbb60e01b81526001600160a01b038481166004830152602482018490529091169063a9059cbb906044016020604051808303816000875af1158015610844573d6000803e3d6000fd5b505050506040513d601f19601f820116820180604052508101906108689190610b95565b505050565b8280548282559060005260206000209081019282156108c2579160200282015b828111156108c257825182546001600160a01b0319166001600160a01b0390911617825560209092019160019091019061088d565b50610385929150610909565b8280548282559060005260206000209081019282156108c2579160200282015b828111156108c25782518255916020019190600101906108ee565b5b80821115610385576000815560010161090a565b634e487b7160e01b600052604160045260246000fd5b604051601f8201601f1916810167ffffffffffffffff8111828210171561095d5761095d61091e565b604052919050565b600067ffffffffffffffff82111561097f5761097f61091e565b5060051b60200190565b80356001600160a01b03811681146109a057600080fd5b919050565b600060208083850312156109b857600080fd5b823567ffffffffffffffff8111156109cf57600080fd5b8301601f810185136109e057600080fd5b80356109f36109ee82610965565b610934565b81815260059190911b82018301908381019087831115610a1257600080fd5b928401925b82841015610a3757610a2884610989565b82529284019290840190610a17565b979650505050505050565b600060208284031215610a5457600080fd5b5035919050565b60006020808385031215610a6e57600080fd5b823567ffffffffffffffff811115610a8557600080fd5b8301601f81018513610a9657600080fd5b8035610aa46109ee82610965565b81815260059190911b82018301908381019087831115610ac357600080fd5b928401925b82841015610a3757833582529284019290840190610ac8565b60008060408385031215610af457600080fd5b610afd83610989565b946020939093013593505050565b600060208284031215610b1d57600080fd5b610b2682610989565b9392505050565b6020808252600990820152682737ba1037bbb732b960b91b604082015260600190565b634e487b7160e01b600052603260045260246000fd5b634e487b7160e01b600052601160045260246000fd5b600060018201610b8e57610b8e610b66565b5060010190565b600060208284031215610ba757600080fd5b81518015158114610b2657600080fd5b6000816000190483118215151615610bd157610bd1610b66565b50029056fea2646970667358221220ec5fc4328e8829142f02ef804456af3956fb55f21a847d4ad0d6b46f66a2310e64736f6c634300080d0033",
    "linkReferences": {}
  },
  "methodIdentifiers": {
    "activeToggle()": "ac6a990f",
    "approvedAmount(address)": "ee0446b2",
    "claimedBurnAmount(uint256)": "78087cc5",
    "getIndex()": "81045ead",
    "getWhitelisted()": "9b372b2b",
    "redeem(uint256)": "db006a75",
    "sendSpice(address,uint256)": "e315283e",
    "setSpiceTokenAddress(address)": "f09535ad",
    "updateClaimedBurnAmount(uint256[])": "a072773f",
    "updateSpiceValue(uint256)": "6a14254c",
    "updateWhitelist(address[])": "35377214",
    "whiteList(uint256)": "5c475d42"
  },
  "id": 11
}