{
  "abi": [
    {
      "inputs": [],
      "stateMutability": "nonpayable",
      "type": "constructor"
    },
    {
      "inputs": [],
      "name": "activeToggle",
      "outputs": [],
      "stateMutability": "nonpayable",
      "type": "function"
    },
    {
      "inputs": [
        {
          "internalType": "address",
          "name": "",
          "type": "address"
        }
      ],
      "name": "approvedAmount",
      "outputs": [
        {
          "internalType": "uint256",
          "name": "",
          "type": "uint256"
        }
      ],
      "stateMutability": "view",
      "type": "function"
    },
    {
      "inputs": [
        {
          "internalType": "uint256",
          "name": "",
          "type": "uint256"
        }
      ],
      "name": "claimedBurnAmount",
      "outputs": [
        {
          "internalType": "uint256",
          "name": "",
          "type": "uint256"
        }
      ],
      "stateMutability": "view",
      "type": "function"
    },
    {
      "inputs": [
        {
          "internalType": "uint256",
          "name": "",
          "type": "uint256"
        }
      ],
      "name": "funders",
      "outputs": [
        {
          "internalType": "address",
          "name": "",
          "type": "address"
        }
      ],
      "stateMutability": "view",
      "type": "function"
    },
    {
      "inputs": [],
      "name": "getFunder",
      "outputs": [
        {
          "internalType": "bool",
          "name": "funder",
          "type": "bool"
        }
      ],
      "stateMutability": "view",
      "type": "function"
    },
    {
      "inputs": [],
      "name": "getIndex",
      "outputs": [
        {
          "internalType": "uint256",
          "name": "index",
          "type": "uint256"
        }
      ],
      "stateMutability": "view",
      "type": "function"
    },
    {
      "inputs": [],
      "name": "getWhitelisted",
      "outputs": [
        {
          "internalType": "bool",
          "name": "whiteListed",
          "type": "bool"
        }
      ],
      "stateMutability": "view",
      "type": "function"
    },
    {
      "inputs": [
        {
          "internalType": "uint256",
          "name": "amount",
          "type": "uint256"
        }
      ],
      "name": "redeem",
      "outputs": [],
      "stateMutability": "payable",
      "type": "function"
    },
    {
      "inputs": [
        {
          "internalType": "address",
          "name": "receiver",
          "type": "address"
        },
        {
          "internalType": "uint256",
          "name": "amount",
          "type": "uint256"
        }
      ],
      "name": "sendSpice",
      "outputs": [],
      "stateMutability": "nonpayable",
      "type": "function"
    },
    {
      "inputs": [
        {
          "internalType": "address",
          "name": "tokenAddress",
          "type": "address"
        }
      ],
      "name": "setSpiceTokenAddress",
      "outputs": [],
      "stateMutability": "nonpayable",
      "type": "function"
    },
    {
      "inputs": [
        {
          "internalType": "uint256[]",
          "name": "newClaimedBurnAmount",
          "type": "uint256[]"
        }
      ],
      "name": "updateClaimedBurnAmount",
      "outputs": [],
      "stateMutability": "nonpayable",
      "type": "function"
    },
    {
      "inputs": [
        {
          "internalType": "uint256",
          "name": "newSpiceValue",
          "type": "uint256"
        }
      ],
      "name": "updateSpiceValue",
      "outputs": [],
      "stateMutability": "nonpayable",
      "type": "function"
    },
    {
      "inputs": [
        {
          "internalType": "address[]",
          "name": "newWhitelist",
          "type": "address[]"
        }
      ],
      "name": "updateWhitelist",
      "outputs": [],
      "stateMutability": "nonpayable",
      "type": "function"
    },
    {
      "inputs": [
        {
          "internalType": "uint256",
          "name": "",
          "type": "uint256"
        }
      ],
      "name": "whiteList",
      "outputs": [
        {
          "internalType": "address",
          "name": "",
          "type": "address"
        }
      ],
      "stateMutability": "view",
      "type": "function"
    },
    {
      "stateMutability": "payable",
      "type": "receive"
    }
  ],
  "bytecode": {
    "object": "0x6000805461ff00191690556445d964b800600190815560a0604052608081815261002c91600291906100bf565b506040805160208101909152620f4240815261004c906003906001610124565b5060408051602081019091526004546001600160a01b031681526100749060059060016100bf565b50600780546001600160a01b031916739b6db7597a74602a5a806e33408e7e2dafa581931790553480156100a757600080fd5b50600480546001600160a01b0319163317905561017b565b828054828255906000526020600020908101928215610114579160200282015b8281111561011457825182546001600160a01b0319166001600160a01b039091161782556020909201916001909101906100df565b50610120929150610166565b5090565b828054828255906000526020600020908101928215610114579160200282015b82811115610114578251829062ffffff16905591602001919060010190610144565b5b808211156101205760008155600101610167565b610d34806200018b6000396000f3fe6080604052600436106100e15760003560e01c8063a072773f1161007f578063dc0d3dff11610059578063dc0d3dff1461027d578063e315283e1461029d578063ee0446b2146102bd578063f09535ad146102ea57600080fd5b8063a072773f14610235578063ac6a990f14610255578063db006a751461026a57600080fd5b806378087cc5116100bb57806378087cc5146101b857806381045ead146101e65780638abb9845146101fb5780639b372b2b1461022057600080fd5b8063353772141461013b5780635c475d421461015b5780636a14254c1461019857600080fd5b36610136576100ee610327565b15156001146101345760405162461bcd60e51b815260206004820152600d60248201526c4e6f7420612066756e6465722160981b60448201526064015b60405180910390fd5b005b600080fd5b34801561014757600080fd5b50610134610156366004610acd565b61038e565b34801561016757600080fd5b5061017b610176366004610b6a565b6103cf565b6040516001600160a01b0390911681526020015b60405180910390f35b3480156101a457600080fd5b506101346101b3366004610b6a565b6103f9565b3480156101c457600080fd5b506101d86101d3366004610b6a565b610428565b60405190815260200161018f565b3480156101f257600080fd5b506101d8610449565b34801561020757600080fd5b50610210610327565b604051901515815260200161018f565b34801561022c57600080fd5b506102106104a9565b34801561024157600080fd5b50610134610250366004610b83565b610508565b34801561026157600080fd5b50610134610545565b610134610278366004610b6a565b61058c565b34801561028957600080fd5b5061017b610298366004610b6a565b6108df565b3480156102a957600080fd5b506101346102b8366004610c09565b6108ef565b3480156102c957600080fd5b506101d86102d8366004610c33565b60066020526000908152604090205481565b3480156102f657600080fd5b50610134610305366004610c33565b600780546001600160a01b0319166001600160a01b0392909216919091179055565b6000805b60055481101561038657336001600160a01b03166005828154811061035257610352610c55565b6000918252602090912001546001600160a01b03160361037457600191505090565b8061037e81610c81565b91505061032b565b506000905090565b6004546001600160a01b031633146103b85760405162461bcd60e51b815260040161012b90610c9a565b80516103cb906002906020840190610995565b5050565b600281815481106103df57600080fd5b6000918252602090912001546001600160a01b0316905081565b6004546001600160a01b031633146104235760405162461bcd60e51b815260040161012b90610c9a565b600155565b6003818154811061043857600080fd5b600091825260209091200154905081565b6000805b6002548110156104a557336001600160a01b03166002828154811061047457610474610c55565b6000918252602090912001546001600160a01b03160361049357919050565b8061049d81610c81565b91505061044d565b5090565b6000805b60025481101561038657336001600160a01b0316600282815481106104d4576104d4610c55565b6000918252602090912001546001600160a01b0316036104f657600191505090565b8061050081610c81565b9150506104ad565b6004546001600160a01b031633146105325760405162461bcd60e51b815260040161012b90610c9a565b80516103cb9060039060208401906109f6565b6004546001600160a01b0316331461056f5760405162461bcd60e51b815260040161012b90610c9a565b6000805461ff001981166101009182900460ff1615909102179055565b60005460ff16156105d05760405162461bcd60e51b815260206004820152600e60248201526d4e6f2072652d656e7472616e637960901b604482015260640161012b565b6000805460ff191660011790819055610100900460ff166106425760405162461bcd60e51b815260206004820152602660248201527f526564656d7074696f6e206973206e6f742063757272656e746c7920617661696044820152656c61626c652160d01b606482015260840161012b565b61064a6104a9565b6106895760405162461bcd60e51b815260206004820152601060248201526f4e6f742057686974656c69737465642160801b604482015260640161012b565b6000610693610449565b9050600381815481106106a8576106a8610c55565b90600052602060002001548211156107125760405162461bcd60e51b815260206004820152602760248201527f416d6f756e742047726561746572207468616e20436c61696d6564204275726e60448201526608105b5bdd5b9d60ca1b606482015260840161012b565b6007546040516323b872dd60e01b815233600482015261dead6024820152604481018490526000916001600160a01b0316906323b872dd906064016020604051808303816000875af115801561076c573d6000803e3d6000fd5b505050506040513d601f19601f820116820180604052508101906107909190610cbd565b9050806107df5760405162461bcd60e51b815260206004820152601860248201527f4661696c656420746f2052656365697665202453504943450000000000000000604482015260640161012b565b600080336001600160a01b0316600154866107fa9190610cdf565b604051600081818185875af1925050503d8060008114610836576040519150601f19603f3d011682016040523d82523d6000602084013e61083b565b606091505b5091509150816108845760405162461bcd60e51b81526020600482015260146024820152732330b4b632b2103a379039b2b7321022ba3432b960611b604482015260640161012b565b6003848154811061089757610897610c55565b9060005260206000200160009055600284815481106108b8576108b8610c55565b6000918252602082200180546001600160a01b0319169055805460ff191690555050505050565b600581815481106103df57600080fd5b6004546001600160a01b031633146109195760405162461bcd60e51b815260040161012b90610c9a565b60075460405163a9059cbb60e01b81526001600160a01b038481166004830152602482018490529091169063a9059cbb906044016020604051808303816000875af115801561096c573d6000803e3d6000fd5b505050506040513d601f19601f820116820180604052508101906109909190610cbd565b505050565b8280548282559060005260206000209081019282156109ea579160200282015b828111156109ea57825182546001600160a01b0319166001600160a01b039091161782556020909201916001909101906109b5565b506104a5929150610a31565b8280548282559060005260206000209081019282156109ea579160200282015b828111156109ea578251825591602001919060010190610a16565b5b808211156104a55760008155600101610a32565b634e487b7160e01b600052604160045260246000fd5b604051601f8201601f1916810167ffffffffffffffff81118282101715610a8557610a85610a46565b604052919050565b600067ffffffffffffffff821115610aa757610aa7610a46565b5060051b60200190565b80356001600160a01b0381168114610ac857600080fd5b919050565b60006020808385031215610ae057600080fd5b823567ffffffffffffffff811115610af757600080fd5b8301601f81018513610b0857600080fd5b8035610b1b610b1682610a8d565b610a5c565b81815260059190911b82018301908381019087831115610b3a57600080fd5b928401925b82841015610b5f57610b5084610ab1565b82529284019290840190610b3f565b979650505050505050565b600060208284031215610b7c57600080fd5b5035919050565b60006020808385031215610b9657600080fd5b823567ffffffffffffffff811115610bad57600080fd5b8301601f81018513610bbe57600080fd5b8035610bcc610b1682610a8d565b81815260059190911b82018301908381019087831115610beb57600080fd5b928401925b82841015610b5f57833582529284019290840190610bf0565b60008060408385031215610c1c57600080fd5b610c2583610ab1565b946020939093013593505050565b600060208284031215610c4557600080fd5b610c4e82610ab1565b9392505050565b634e487b7160e01b600052603260045260246000fd5b634e487b7160e01b600052601160045260246000fd5b600060018201610c9357610c93610c6b565b5060010190565b6020808252600990820152682737ba1037bbb732b960b91b604082015260600190565b600060208284031215610ccf57600080fd5b81518015158114610c4e57600080fd5b6000816000190483118215151615610cf957610cf9610c6b565b50029056fea26469706673582212207016bdc61b727ed3963e6bac45866edea006d5c41833eb5cb866564bda69ae8664736f6c634300080d0033",
    "linkReferences": {}
  },
  "methodIdentifiers": {
    "activeToggle()": "ac6a990f",
    "approvedAmount(address)": "ee0446b2",
    "claimedBurnAmount(uint256)": "78087cc5",
    "funders(uint256)": "dc0d3dff",
    "getFunder()": "8abb9845",
    "getIndex()": "81045ead",
    "getWhitelisted()": "9b372b2b",
    "redeem(uint256)": "db006a75",
    "sendSpice(address,uint256)": "e315283e",
    "setSpiceTokenAddress(address)": "f09535ad",
    "updateClaimedBurnAmount(uint256[])": "a072773f",
    "updateSpiceValue(uint256)": "6a14254c",
    "updateWhitelist(address[])": "35377214",
    "whiteList(uint256)": "5c475d42"
  },
  "id": 11
}