{
  "abi": [
    {
      "inputs": [],
      "stateMutability": "nonpayable",
      "type": "constructor"
    },
    {
      "inputs": [],
      "name": "activeToggle",
      "outputs": [],
      "stateMutability": "nonpayable",
      "type": "function"
    },
    {
      "inputs": [
        {
          "internalType": "address",
          "name": "",
          "type": "address"
        }
      ],
      "name": "approvedAmount",
      "outputs": [
        {
          "internalType": "uint256",
          "name": "",
          "type": "uint256"
        }
      ],
      "stateMutability": "view",
      "type": "function"
    },
    {
      "inputs": [
        {
          "internalType": "uint256",
          "name": "",
          "type": "uint256"
        }
      ],
      "name": "claimedBurnAmount",
      "outputs": [
        {
          "internalType": "uint256",
          "name": "",
          "type": "uint256"
        }
      ],
      "stateMutability": "view",
      "type": "function"
    },
    {
      "inputs": [],
      "name": "getIndex",
      "outputs": [
        {
          "internalType": "uint256",
          "name": "index",
          "type": "uint256"
        }
      ],
      "stateMutability": "view",
      "type": "function"
    },
    {
      "inputs": [],
      "name": "getWhitelisted",
      "outputs": [
        {
          "internalType": "bool",
          "name": "whiteListed",
          "type": "bool"
        }
      ],
      "stateMutability": "view",
      "type": "function"
    },
    {
      "inputs": [
        {
          "internalType": "uint256",
          "name": "amount",
          "type": "uint256"
        }
      ],
      "name": "redeem",
      "outputs": [],
      "stateMutability": "payable",
      "type": "function"
    },
    {
      "inputs": [
        {
          "internalType": "address",
          "name": "tokenAddress",
          "type": "address"
        }
      ],
      "name": "setSpiceTokenAddress",
      "outputs": [],
      "stateMutability": "nonpayable",
      "type": "function"
    },
    {
      "inputs": [
        {
          "internalType": "uint256[]",
          "name": "newClaimedBurnAmount",
          "type": "uint256[]"
        }
      ],
      "name": "updateClaimedBurnAmount",
      "outputs": [],
      "stateMutability": "nonpayable",
      "type": "function"
    },
    {
      "inputs": [
        {
          "internalType": "uint256",
          "name": "newSpiceValue",
          "type": "uint256"
        }
      ],
      "name": "updateSpiceValue",
      "outputs": [],
      "stateMutability": "nonpayable",
      "type": "function"
    },
    {
      "inputs": [
        {
          "internalType": "address[]",
          "name": "newWhitelist",
          "type": "address[]"
        }
      ],
      "name": "updateWhitelist",
      "outputs": [],
      "stateMutability": "nonpayable",
      "type": "function"
    },
    {
      "inputs": [
        {
          "internalType": "uint256",
          "name": "",
          "type": "uint256"
        }
      ],
      "name": "whiteList",
      "outputs": [
        {
          "internalType": "address",
          "name": "",
          "type": "address"
        }
      ],
      "stateMutability": "view",
      "type": "function"
    }
  ],
  "bytecode": {
    "object": "0x6000805461ff00191690556445d964b800600190815560a0604052608081815261002c9160029190610097565b506040805160208101909152620f4240815261004c9060039060016100fc565b50600680546001600160a01b031916739b6db7597a74602a5a806e33408e7e2dafa5819317905534801561007f57600080fd5b50600480546001600160a01b03191633179055610153565b8280548282559060005260206000209081019282156100ec579160200282015b828111156100ec57825182546001600160a01b0319166001600160a01b039091161782556020909201916001909101906100b7565b506100f892915061013e565b5090565b8280548282559060005260206000209081019282156100ec579160200282015b828111156100ec578251829062ffffff1690559160200191906001019061011c565b5b808211156100f8576000815560010161013f565b610b11806101626000396000f3fe60806040526004361061009c5760003560e01c80639b372b2b116100645780639b372b2b14610163578063a072773f14610188578063ac6a990f146101a8578063db006a75146101bd578063ee0446b2146101d0578063f09535ad146101fd57600080fd5b806335377214146100a15780635c475d42146100c35780636a14254c1461010057806378087cc51461012057806381045ead1461014e575b600080fd5b3480156100ad57600080fd5b506100c16100bc3660046108d4565b61023a565b005b3480156100cf57600080fd5b506100e36100de366004610971565b610284565b6040516001600160a01b0390911681526020015b60405180910390f35b34801561010c57600080fd5b506100c161011b366004610971565b6102ae565b34801561012c57600080fd5b5061014061013b366004610971565b6102dd565b6040519081526020016100f7565b34801561015a57600080fd5b506101406102fe565b34801561016f57600080fd5b5061017861035e565b60405190151581526020016100f7565b34801561019457600080fd5b506100c16101a336600461098a565b6103c5565b3480156101b457600080fd5b506100c1610402565b6100c16101cb366004610971565b610449565b3480156101dc57600080fd5b506101406101eb366004610a10565b60056020526000908152604090205481565b34801561020957600080fd5b506100c1610218366004610a10565b600680546001600160a01b0319166001600160a01b0392909216919091179055565b6004546001600160a01b0316331461026d5760405162461bcd60e51b815260040161026490610a32565b60405180910390fd5b805161028090600290602084019061079c565b5050565b6002818154811061029457600080fd5b6000918252602090912001546001600160a01b0316905081565b6004546001600160a01b031633146102d85760405162461bcd60e51b815260040161026490610a32565b600155565b600381815481106102ed57600080fd5b600091825260209091200154905081565b6000805b60025481101561035a57336001600160a01b03166002828154811061032957610329610a55565b6000918252602090912001546001600160a01b03160361034857919050565b8061035281610a81565b915050610302565b5090565b6000805b6002548110156103bd57336001600160a01b03166002828154811061038957610389610a55565b6000918252602090912001546001600160a01b0316036103ab57600191505090565b806103b581610a81565b915050610362565b506000905090565b6004546001600160a01b031633146103ef5760405162461bcd60e51b815260040161026490610a32565b80516102809060039060208401906107fd565b6004546001600160a01b0316331461042c5760405162461bcd60e51b815260040161026490610a32565b6000805461ff001981166101009182900460ff1615909102179055565b60005460ff161561048d5760405162461bcd60e51b815260206004820152600e60248201526d4e6f2072652d656e7472616e637960901b6044820152606401610264565b6000805460ff191660011790819055610100900460ff166104ff5760405162461bcd60e51b815260206004820152602660248201527f526564656d7074696f6e206973206e6f742063757272656e746c7920617661696044820152656c61626c652160d01b6064820152608401610264565b61050761035e565b6105465760405162461bcd60e51b815260206004820152601060248201526f4e6f742057686974656c69737465642160801b6044820152606401610264565b60006105506102fe565b90506003818154811061056557610565610a55565b90600052602060002001548211156105cf5760405162461bcd60e51b815260206004820152602760248201527f416d6f756e742047726561746572207468616e20436c61696d6564204275726e60448201526608105b5bdd5b9d60ca1b6064820152608401610264565b6006546040516323b872dd60e01b815233600482015261dead6024820152604481018490526000916001600160a01b0316906323b872dd906064016020604051808303816000875af1158015610629573d6000803e3d6000fd5b505050506040513d601f19601f8201168201806040525081019061064d9190610a9a565b90508061069c5760405162461bcd60e51b815260206004820152601860248201527f4661696c656420746f20526563656976652024535049434500000000000000006044820152606401610264565b600080336001600160a01b0316600154866106b79190610abc565b604051600081818185875af1925050503d80600081146106f3576040519150601f19603f3d011682016040523d82523d6000602084013e6106f8565b606091505b5091509150816107415760405162461bcd60e51b81526020600482015260146024820152732330b4b632b2103a379039b2b7321022ba3432b960611b6044820152606401610264565b6003848154811061075457610754610a55565b90600052602060002001600090556002848154811061077557610775610a55565b6000918252602082200180546001600160a01b0319169055805460ff191690555050505050565b8280548282559060005260206000209081019282156107f1579160200282015b828111156107f157825182546001600160a01b0319166001600160a01b039091161782556020909201916001909101906107bc565b5061035a929150610838565b8280548282559060005260206000209081019282156107f1579160200282015b828111156107f157825182559160200191906001019061081d565b5b8082111561035a5760008155600101610839565b634e487b7160e01b600052604160045260246000fd5b604051601f8201601f1916810167ffffffffffffffff8111828210171561088c5761088c61084d565b604052919050565b600067ffffffffffffffff8211156108ae576108ae61084d565b5060051b60200190565b80356001600160a01b03811681146108cf57600080fd5b919050565b600060208083850312156108e757600080fd5b823567ffffffffffffffff8111156108fe57600080fd5b8301601f8101851361090f57600080fd5b803561092261091d82610894565b610863565b81815260059190911b8201830190838101908783111561094157600080fd5b928401925b8284101561096657610957846108b8565b82529284019290840190610946565b979650505050505050565b60006020828403121561098357600080fd5b5035919050565b6000602080838503121561099d57600080fd5b823567ffffffffffffffff8111156109b457600080fd5b8301601f810185136109c557600080fd5b80356109d361091d82610894565b81815260059190911b820183019083810190878311156109f257600080fd5b928401925b82841015610966578335825292840192908401906109f7565b600060208284031215610a2257600080fd5b610a2b826108b8565b9392505050565b6020808252600990820152682737ba1037bbb732b960b91b604082015260600190565b634e487b7160e01b600052603260045260246000fd5b634e487b7160e01b600052601160045260246000fd5b600060018201610a9357610a93610a6b565b5060010190565b600060208284031215610aac57600080fd5b81518015158114610a2b57600080fd5b6000816000190483118215151615610ad657610ad6610a6b565b50029056fea264697066735822122080efa319428414fde9024ae967762862d5cc92f94b4c929abadc2ef90710a8a164736f6c634300080d0033",
    "linkReferences": {}
  },
  "methodIdentifiers": {
    "activeToggle()": "ac6a990f",
    "approvedAmount(address)": "ee0446b2",
    "claimedBurnAmount(uint256)": "78087cc5",
    "getIndex()": "81045ead",
    "getWhitelisted()": "9b372b2b",
    "redeem(uint256)": "db006a75",
    "setSpiceTokenAddress(address)": "f09535ad",
    "updateClaimedBurnAmount(uint256[])": "a072773f",
    "updateSpiceValue(uint256)": "6a14254c",
    "updateWhitelist(address[])": "35377214",
    "whiteList(uint256)": "5c475d42"
  },
  "id": 11
}