{
  "abi": [
    {
      "inputs": [],
      "stateMutability": "nonpayable",
      "type": "constructor"
    },
    {
      "stateMutability": "payable",
      "type": "fallback"
    },
    {
      "inputs": [],
      "name": "activeToggle",
      "outputs": [],
      "stateMutability": "nonpayable",
      "type": "function"
    },
    {
      "inputs": [
        {
          "internalType": "uint256",
          "name": "",
          "type": "uint256"
        }
      ],
      "name": "claimedBurnAmount",
      "outputs": [
        {
          "internalType": "uint256",
          "name": "",
          "type": "uint256"
        }
      ],
      "stateMutability": "view",
      "type": "function"
    },
    {
      "inputs": [
        {
          "internalType": "uint256",
          "name": "",
          "type": "uint256"
        }
      ],
      "name": "funders",
      "outputs": [
        {
          "internalType": "address",
          "name": "",
          "type": "address"
        }
      ],
      "stateMutability": "view",
      "type": "function"
    },
    {
      "inputs": [],
      "name": "getFunder",
      "outputs": [
        {
          "internalType": "bool",
          "name": "funder",
          "type": "bool"
        }
      ],
      "stateMutability": "view",
      "type": "function"
    },
    {
      "inputs": [],
      "name": "getIndex",
      "outputs": [
        {
          "internalType": "uint256",
          "name": "index",
          "type": "uint256"
        }
      ],
      "stateMutability": "view",
      "type": "function"
    },
    {
      "inputs": [],
      "name": "getWhitelisted",
      "outputs": [
        {
          "internalType": "bool",
          "name": "whiteListed",
          "type": "bool"
        }
      ],
      "stateMutability": "view",
      "type": "function"
    },
    {
      "inputs": [
        {
          "internalType": "uint256",
          "name": "amount",
          "type": "uint256"
        }
      ],
      "name": "redeem",
      "outputs": [],
      "stateMutability": "payable",
      "type": "function"
    },
    {
      "inputs": [
        {
          "internalType": "address",
          "name": "receiver",
          "type": "address"
        },
        {
          "internalType": "uint256",
          "name": "amount",
          "type": "uint256"
        }
      ],
      "name": "sendSpice",
      "outputs": [],
      "stateMutability": "nonpayable",
      "type": "function"
    },
    {
      "inputs": [
        {
          "internalType": "address",
          "name": "tokenAddress",
          "type": "address"
        }
      ],
      "name": "setSpiceTokenAddressREMOVEME",
      "outputs": [],
      "stateMutability": "nonpayable",
      "type": "function"
    },
    {
      "inputs": [
        {
          "internalType": "uint256[]",
          "name": "newClaimedBurnAmount",
          "type": "uint256[]"
        }
      ],
      "name": "updateClaimedBurnAmount",
      "outputs": [],
      "stateMutability": "nonpayable",
      "type": "function"
    },
    {
      "inputs": [
        {
          "internalType": "uint256",
          "name": "newSpiceValue",
          "type": "uint256"
        }
      ],
      "name": "updateSpiceValue",
      "outputs": [],
      "stateMutability": "nonpayable",
      "type": "function"
    },
    {
      "inputs": [
        {
          "internalType": "address[]",
          "name": "newWhitelist",
          "type": "address[]"
        }
      ],
      "name": "updateWhitelist",
      "outputs": [],
      "stateMutability": "nonpayable",
      "type": "function"
    },
    {
      "inputs": [
        {
          "internalType": "uint256",
          "name": "",
          "type": "uint256"
        }
      ],
      "name": "whiteList",
      "outputs": [
        {
          "internalType": "address",
          "name": "",
          "type": "address"
        }
      ],
      "stateMutability": "view",
      "type": "function"
    },
    {
      "stateMutability": "payable",
      "type": "receive"
    }
  ],
  "bytecode": {
    "object": "0x6445d964b800600190815560a0604052608081815261002191600291906100b4565b506040805160208101909152620f42408152610041906003906001610119565b5060408051602081019091526004546001600160a01b031681526100699060059060016100b4565b50600680546001600160a01b031916739b6db7597a74602a5a806e33408e7e2dafa5819317905534801561009c57600080fd5b50600480546001600160a01b03191633179055610170565b828054828255906000526020600020908101928215610109579160200282015b8281111561010957825182546001600160a01b0319166001600160a01b039091161782556020909201916001909101906100d4565b5061011592915061015b565b5090565b828054828255906000526020600020908101928215610109579160200282015b82811115610109578251829062ffffff16905591602001919060010190610139565b5b80821115610115576000815560010161015c565b610d1e80620001806000396000f3fe6080604052600436106100c65760003560e01c80638abb98451161007f578063ac6a990f11610059578063ac6a990f1461025d578063db006a7514610272578063dc0d3dff14610285578063e315283e146102a55761011b565b80638abb9845146102035780639b372b2b14610228578063a072773f1461023d5761011b565b80633537721414610123578063518b314a146101435780635c475d42146101635780636a14254c146101a057806378087cc5146101c057806381045ead146101ee5761011b565b3661011b576100d36102c5565b15156001146101195760405162461bcd60e51b815260206004820152600d60248201526c4e6f7420612066756e6465722160981b60448201526064015b60405180910390fd5b005b6100d36102c5565b34801561012f57600080fd5b5061011961013e366004610ab7565b61032c565b34801561014f57600080fd5b5061011961015e366004610b54565b61036d565b34801561016f57600080fd5b5061018361017e366004610b76565b6103b9565b6040516001600160a01b0390911681526020015b60405180910390f35b3480156101ac57600080fd5b506101196101bb366004610b76565b6103e3565b3480156101cc57600080fd5b506101e06101db366004610b76565b610412565b604051908152602001610197565b3480156101fa57600080fd5b506101e0610433565b34801561020f57600080fd5b506102186102c5565b6040519015158152602001610197565b34801561023457600080fd5b50610218610493565b34801561024957600080fd5b50610119610258366004610b8f565b6104f2565b34801561026957600080fd5b5061011961052f565b610119610280366004610b76565b610576565b34801561029157600080fd5b506101836102a0366004610b76565b6108c9565b3480156102b157600080fd5b506101196102c0366004610c15565b6108d9565b6000805b60055481101561032457336001600160a01b0316600582815481106102f0576102f0610c3f565b6000918252602090912001546001600160a01b03160361031257600191505090565b8061031c81610c6b565b9150506102c9565b506000905090565b6004546001600160a01b031633146103565760405162461bcd60e51b815260040161011090610c84565b805161036990600290602084019061097f565b5050565b6004546001600160a01b031633146103975760405162461bcd60e51b815260040161011090610c84565b600680546001600160a01b0319166001600160a01b0392909216919091179055565b600281815481106103c957600080fd5b6000918252602090912001546001600160a01b0316905081565b6004546001600160a01b0316331461040d5760405162461bcd60e51b815260040161011090610c84565b600155565b6003818154811061042257600080fd5b600091825260209091200154905081565b6000805b60025481101561048f57336001600160a01b03166002828154811061045e5761045e610c3f565b6000918252602090912001546001600160a01b03160361047d57919050565b8061048781610c6b565b915050610437565b5090565b6000805b60025481101561032457336001600160a01b0316600282815481106104be576104be610c3f565b6000918252602090912001546001600160a01b0316036104e057600191505090565b806104ea81610c6b565b915050610497565b6004546001600160a01b0316331461051c5760405162461bcd60e51b815260040161011090610c84565b80516103699060039060208401906109e0565b6004546001600160a01b031633146105595760405162461bcd60e51b815260040161011090610c84565b6000805461ff001981166101009182900460ff1615909102179055565b60005460ff16156105ba5760405162461bcd60e51b815260206004820152600e60248201526d4e6f2072652d656e7472616e637960901b6044820152606401610110565b6000805460ff191660011790819055610100900460ff1661062c5760405162461bcd60e51b815260206004820152602660248201527f526564656d7074696f6e206973206e6f742063757272656e746c7920617661696044820152656c61626c652160d01b6064820152608401610110565b610634610493565b6106735760405162461bcd60e51b815260206004820152601060248201526f4e6f742057686974656c69737465642160801b6044820152606401610110565b600061067d610433565b90506003818154811061069257610692610c3f565b90600052602060002001548211156106fc5760405162461bcd60e51b815260206004820152602760248201527f416d6f756e742047726561746572207468616e20436c61696d6564204275726e60448201526608105b5bdd5b9d60ca1b6064820152608401610110565b6006546040516323b872dd60e01b815233600482015261dead6024820152604481018490526000916001600160a01b0316906323b872dd906064016020604051808303816000875af1158015610756573d6000803e3d6000fd5b505050506040513d601f19601f8201168201806040525081019061077a9190610ca7565b9050806107c95760405162461bcd60e51b815260206004820152601860248201527f4661696c656420746f20526563656976652024535049434500000000000000006044820152606401610110565b600080336001600160a01b0316600154866107e49190610cc9565b604051600081818185875af1925050503d8060008114610820576040519150601f19603f3d011682016040523d82523d6000602084013e610825565b606091505b50915091508161086e5760405162461bcd60e51b81526020600482015260146024820152732330b4b632b2103a379039b2b7321022ba3432b960611b6044820152606401610110565b6003848154811061088157610881610c3f565b9060005260206000200160009055600284815481106108a2576108a2610c3f565b6000918252602082200180546001600160a01b0319169055805460ff191690555050505050565b600581815481106103c957600080fd5b6004546001600160a01b031633146109035760405162461bcd60e51b815260040161011090610c84565b60065460405163a9059cbb60e01b81526001600160a01b038481166004830152602482018490529091169063a9059cbb906044016020604051808303816000875af1158015610956573d6000803e3d6000fd5b505050506040513d601f19601f8201168201806040525081019061097a9190610ca7565b505050565b8280548282559060005260206000209081019282156109d4579160200282015b828111156109d457825182546001600160a01b0319166001600160a01b0390911617825560209092019160019091019061099f565b5061048f929150610a1b565b8280548282559060005260206000209081019282156109d4579160200282015b828111156109d4578251825591602001919060010190610a00565b5b8082111561048f5760008155600101610a1c565b634e487b7160e01b600052604160045260246000fd5b604051601f8201601f1916810167ffffffffffffffff81118282101715610a6f57610a6f610a30565b604052919050565b600067ffffffffffffffff821115610a9157610a91610a30565b5060051b60200190565b80356001600160a01b0381168114610ab257600080fd5b919050565b60006020808385031215610aca57600080fd5b823567ffffffffffffffff811115610ae157600080fd5b8301601f81018513610af257600080fd5b8035610b05610b0082610a77565b610a46565b81815260059190911b82018301908381019087831115610b2457600080fd5b928401925b82841015610b4957610b3a84610a9b565b82529284019290840190610b29565b979650505050505050565b600060208284031215610b6657600080fd5b610b6f82610a9b565b9392505050565b600060208284031215610b8857600080fd5b5035919050565b60006020808385031215610ba257600080fd5b823567ffffffffffffffff811115610bb957600080fd5b8301601f81018513610bca57600080fd5b8035610bd8610b0082610a77565b81815260059190911b82018301908381019087831115610bf757600080fd5b928401925b82841015610b4957833582529284019290840190610bfc565b60008060408385031215610c2857600080fd5b610c3183610a9b565b946020939093013593505050565b634e487b7160e01b600052603260045260246000fd5b634e487b7160e01b600052601160045260246000fd5b600060018201610c7d57610c7d610c55565b5060010190565b6020808252600990820152682737ba1037bbb732b960b91b604082015260600190565b600060208284031215610cb957600080fd5b81518015158114610b6f57600080fd5b6000816000190483118215151615610ce357610ce3610c55565b50029056fea264697066735822122098c4a99bae49f5cc5022450041ef202b9bdd0e8088e34653b5cae443e2c566e264736f6c634300080d0033",
    "linkReferences": {}
  },
  "methodIdentifiers": {
    "activeToggle()": "ac6a990f",
    "claimedBurnAmount(uint256)": "78087cc5",
    "funders(uint256)": "dc0d3dff",
    "getFunder()": "8abb9845",
    "getIndex()": "81045ead",
    "getWhitelisted()": "9b372b2b",
    "redeem(uint256)": "db006a75",
    "sendSpice(address,uint256)": "e315283e",
    "setSpiceTokenAddressREMOVEME(address)": "518b314a",
    "updateClaimedBurnAmount(uint256[])": "a072773f",
    "updateSpiceValue(uint256)": "6a14254c",
    "updateWhitelist(address[])": "35377214",
    "whiteList(uint256)": "5c475d42"
  },
  "id": 11
}