{
  "abi": [
    {
      "inputs": [],
      "stateMutability": "nonpayable",
      "type": "constructor"
    },
    {
      "stateMutability": "payable",
      "type": "fallback"
    },
    {
      "inputs": [],
      "name": "activeToggle",
      "outputs": [],
      "stateMutability": "nonpayable",
      "type": "function"
    },
    {
      "inputs": [
        {
          "internalType": "address",
          "name": "",
          "type": "address"
        }
      ],
      "name": "approvedAmount",
      "outputs": [
        {
          "internalType": "uint256",
          "name": "",
          "type": "uint256"
        }
      ],
      "stateMutability": "view",
      "type": "function"
    },
    {
      "inputs": [
        {
          "internalType": "uint256",
          "name": "",
          "type": "uint256"
        }
      ],
      "name": "claimedBurnAmount",
      "outputs": [
        {
          "internalType": "uint256",
          "name": "",
          "type": "uint256"
        }
      ],
      "stateMutability": "view",
      "type": "function"
    },
    {
      "inputs": [
        {
          "internalType": "uint256",
          "name": "",
          "type": "uint256"
        }
      ],
      "name": "funders",
      "outputs": [
        {
          "internalType": "address",
          "name": "",
          "type": "address"
        }
      ],
      "stateMutability": "view",
      "type": "function"
    },
    {
      "inputs": [],
      "name": "getFunder",
      "outputs": [
        {
          "internalType": "bool",
          "name": "funder",
          "type": "bool"
        }
      ],
      "stateMutability": "view",
      "type": "function"
    },
    {
      "inputs": [],
      "name": "getIndex",
      "outputs": [
        {
          "internalType": "uint256",
          "name": "index",
          "type": "uint256"
        }
      ],
      "stateMutability": "view",
      "type": "function"
    },
    {
      "inputs": [],
      "name": "getWhitelisted",
      "outputs": [
        {
          "internalType": "bool",
          "name": "whiteListed",
          "type": "bool"
        }
      ],
      "stateMutability": "view",
      "type": "function"
    },
    {
      "inputs": [
        {
          "internalType": "uint256",
          "name": "amount",
          "type": "uint256"
        }
      ],
      "name": "redeem",
      "outputs": [],
      "stateMutability": "payable",
      "type": "function"
    },
    {
      "inputs": [
        {
          "internalType": "address",
          "name": "receiver",
          "type": "address"
        },
        {
          "internalType": "uint256",
          "name": "amount",
          "type": "uint256"
        }
      ],
      "name": "sendSpice",
      "outputs": [],
      "stateMutability": "nonpayable",
      "type": "function"
    },
    {
      "inputs": [
        {
          "internalType": "address",
          "name": "tokenAddress",
          "type": "address"
        }
      ],
      "name": "setSpiceTokenAddress",
      "outputs": [],
      "stateMutability": "nonpayable",
      "type": "function"
    },
    {
      "inputs": [
        {
          "internalType": "uint256[]",
          "name": "newClaimedBurnAmount",
          "type": "uint256[]"
        }
      ],
      "name": "updateClaimedBurnAmount",
      "outputs": [],
      "stateMutability": "nonpayable",
      "type": "function"
    },
    {
      "inputs": [
        {
          "internalType": "uint256",
          "name": "newSpiceValue",
          "type": "uint256"
        }
      ],
      "name": "updateSpiceValue",
      "outputs": [],
      "stateMutability": "nonpayable",
      "type": "function"
    },
    {
      "inputs": [
        {
          "internalType": "address[]",
          "name": "newWhitelist",
          "type": "address[]"
        }
      ],
      "name": "updateWhitelist",
      "outputs": [],
      "stateMutability": "nonpayable",
      "type": "function"
    },
    {
      "inputs": [
        {
          "internalType": "uint256",
          "name": "",
          "type": "uint256"
        }
      ],
      "name": "whiteList",
      "outputs": [
        {
          "internalType": "address",
          "name": "",
          "type": "address"
        }
      ],
      "stateMutability": "view",
      "type": "function"
    },
    {
      "stateMutability": "payable",
      "type": "receive"
    }
  ],
  "bytecode": {
    "object": "0x6445d964b800600190815560a0604052608081815261002191600291906100b4565b506040805160208101909152620f42408152610041906003906001610119565b5060408051602081019091526004546001600160a01b031681526100699060059060016100b4565b50600780546001600160a01b031916739b6db7597a74602a5a806e33408e7e2dafa5819317905534801561009c57600080fd5b50600480546001600160a01b03191633179055610170565b828054828255906000526020600020908101928215610109579160200282015b8281111561010957825182546001600160a01b0319166001600160a01b039091161782556020909201916001909101906100d4565b5061011592915061015b565b5090565b828054828255906000526020600020908101928215610109579160200282015b82811115610109578251829062ffffff16905591602001919060010190610139565b5b80821115610115576000815560010161015c565b610d6680620001806000396000f3fe6080604052600436106100e15760003560e01c8063a072773f1161007f578063dc0d3dff11610059578063dc0d3dff14610280578063e315283e146102a0578063ee0446b2146102c0578063f09535ad146102ed57610136565b8063a072773f14610238578063ac6a990f14610258578063db006a751461026d57610136565b806378087cc5116100bb57806378087cc5146101bb57806381045ead146101e95780638abb9845146101fe5780639b372b2b1461022357610136565b8063353772141461013e5780635c475d421461015e5780636a14254c1461019b57610136565b36610136576100ee61030d565b15156001146101345760405162461bcd60e51b815260206004820152600d60248201526c4e6f7420612066756e6465722160981b60448201526064015b60405180910390fd5b005b6100ee61030d565b34801561014a57600080fd5b50610134610159366004610aff565b610374565b34801561016a57600080fd5b5061017e610179366004610b9c565b6103b5565b6040516001600160a01b0390911681526020015b60405180910390f35b3480156101a757600080fd5b506101346101b6366004610b9c565b6103df565b3480156101c757600080fd5b506101db6101d6366004610b9c565b61040e565b604051908152602001610192565b3480156101f557600080fd5b506101db61042f565b34801561020a57600080fd5b5061021361030d565b6040519015158152602001610192565b34801561022f57600080fd5b5061021361048f565b34801561024457600080fd5b50610134610253366004610bb5565b6104ee565b34801561026457600080fd5b5061013461052b565b61013461027b366004610b9c565b610572565b34801561028c57600080fd5b5061017e61029b366004610b9c565b6108c5565b3480156102ac57600080fd5b506101346102bb366004610c3b565b6108d5565b3480156102cc57600080fd5b506101db6102db366004610c65565b60066020526000908152604090205481565b3480156102f957600080fd5b50610134610308366004610c65565b61097b565b6000805b60055481101561036c57336001600160a01b03166005828154811061033857610338610c87565b6000918252602090912001546001600160a01b03160361035a57600191505090565b8061036481610cb3565b915050610311565b506000905090565b6004546001600160a01b0316331461039e5760405162461bcd60e51b815260040161012b90610ccc565b80516103b19060029060208401906109c7565b5050565b600281815481106103c557600080fd5b6000918252602090912001546001600160a01b0316905081565b6004546001600160a01b031633146104095760405162461bcd60e51b815260040161012b90610ccc565b600155565b6003818154811061041e57600080fd5b600091825260209091200154905081565b6000805b60025481101561048b57336001600160a01b03166002828154811061045a5761045a610c87565b6000918252602090912001546001600160a01b03160361047957919050565b8061048381610cb3565b915050610433565b5090565b6000805b60025481101561036c57336001600160a01b0316600282815481106104ba576104ba610c87565b6000918252602090912001546001600160a01b0316036104dc57600191505090565b806104e681610cb3565b915050610493565b6004546001600160a01b031633146105185760405162461bcd60e51b815260040161012b90610ccc565b80516103b1906003906020840190610a28565b6004546001600160a01b031633146105555760405162461bcd60e51b815260040161012b90610ccc565b6000805461ff001981166101009182900460ff1615909102179055565b60005460ff16156105b65760405162461bcd60e51b815260206004820152600e60248201526d4e6f2072652d656e7472616e637960901b604482015260640161012b565b6000805460ff191660011790819055610100900460ff166106285760405162461bcd60e51b815260206004820152602660248201527f526564656d7074696f6e206973206e6f742063757272656e746c7920617661696044820152656c61626c652160d01b606482015260840161012b565b61063061048f565b61066f5760405162461bcd60e51b815260206004820152601060248201526f4e6f742057686974656c69737465642160801b604482015260640161012b565b600061067961042f565b90506003818154811061068e5761068e610c87565b90600052602060002001548211156106f85760405162461bcd60e51b815260206004820152602760248201527f416d6f756e742047726561746572207468616e20436c61696d6564204275726e60448201526608105b5bdd5b9d60ca1b606482015260840161012b565b6007546040516323b872dd60e01b815233600482015261dead6024820152604481018490526000916001600160a01b0316906323b872dd906064016020604051808303816000875af1158015610752573d6000803e3d6000fd5b505050506040513d601f19601f820116820180604052508101906107769190610cef565b9050806107c55760405162461bcd60e51b815260206004820152601860248201527f4661696c656420746f2052656365697665202453504943450000000000000000604482015260640161012b565b600080336001600160a01b0316600154866107e09190610d11565b604051600081818185875af1925050503d806000811461081c576040519150601f19603f3d011682016040523d82523d6000602084013e610821565b606091505b50915091508161086a5760405162461bcd60e51b81526020600482015260146024820152732330b4b632b2103a379039b2b7321022ba3432b960611b604482015260640161012b565b6003848154811061087d5761087d610c87565b90600052602060002001600090556002848154811061089e5761089e610c87565b6000918252602082200180546001600160a01b0319169055805460ff191690555050505050565b600581815481106103c557600080fd5b6004546001600160a01b031633146108ff5760405162461bcd60e51b815260040161012b90610ccc565b60075460405163a9059cbb60e01b81526001600160a01b038481166004830152602482018490529091169063a9059cbb906044016020604051808303816000875af1158015610952573d6000803e3d6000fd5b505050506040513d601f19601f820116820180604052508101906109769190610cef565b505050565b6004546001600160a01b031633146109a55760405162461bcd60e51b815260040161012b90610ccc565b600780546001600160a01b0319166001600160a01b0392909216919091179055565b828054828255906000526020600020908101928215610a1c579160200282015b82811115610a1c57825182546001600160a01b0319166001600160a01b039091161782556020909201916001909101906109e7565b5061048b929150610a63565b828054828255906000526020600020908101928215610a1c579160200282015b82811115610a1c578251825591602001919060010190610a48565b5b8082111561048b5760008155600101610a64565b634e487b7160e01b600052604160045260246000fd5b604051601f8201601f1916810167ffffffffffffffff81118282101715610ab757610ab7610a78565b604052919050565b600067ffffffffffffffff821115610ad957610ad9610a78565b5060051b60200190565b80356001600160a01b0381168114610afa57600080fd5b919050565b60006020808385031215610b1257600080fd5b823567ffffffffffffffff811115610b2957600080fd5b8301601f81018513610b3a57600080fd5b8035610b4d610b4882610abf565b610a8e565b81815260059190911b82018301908381019087831115610b6c57600080fd5b928401925b82841015610b9157610b8284610ae3565b82529284019290840190610b71565b979650505050505050565b600060208284031215610bae57600080fd5b5035919050565b60006020808385031215610bc857600080fd5b823567ffffffffffffffff811115610bdf57600080fd5b8301601f81018513610bf057600080fd5b8035610bfe610b4882610abf565b81815260059190911b82018301908381019087831115610c1d57600080fd5b928401925b82841015610b9157833582529284019290840190610c22565b60008060408385031215610c4e57600080fd5b610c5783610ae3565b946020939093013593505050565b600060208284031215610c7757600080fd5b610c8082610ae3565b9392505050565b634e487b7160e01b600052603260045260246000fd5b634e487b7160e01b600052601160045260246000fd5b600060018201610cc557610cc5610c9d565b5060010190565b6020808252600990820152682737ba1037bbb732b960b91b604082015260600190565b600060208284031215610d0157600080fd5b81518015158114610c8057600080fd5b6000816000190483118215151615610d2b57610d2b610c9d565b50029056fea2646970667358221220db88296de998c0e2fdd8981350747d8cccd983f62a67877a0ab53585aa36eb1664736f6c634300080d0033",
    "linkReferences": {}
  },
  "methodIdentifiers": {
    "activeToggle()": "ac6a990f",
    "approvedAmount(address)": "ee0446b2",
    "claimedBurnAmount(uint256)": "78087cc5",
    "funders(uint256)": "dc0d3dff",
    "getFunder()": "8abb9845",
    "getIndex()": "81045ead",
    "getWhitelisted()": "9b372b2b",
    "redeem(uint256)": "db006a75",
    "sendSpice(address,uint256)": "e315283e",
    "setSpiceTokenAddress(address)": "f09535ad",
    "updateClaimedBurnAmount(uint256[])": "a072773f",
    "updateSpiceValue(uint256)": "6a14254c",
    "updateWhitelist(address[])": "35377214",
    "whiteList(uint256)": "5c475d42"
  },
  "id": 11
}