{
  "abi": [
    {
      "inputs": [],
      "stateMutability": "nonpayable",
      "type": "constructor"
    },
    {
      "inputs": [],
      "name": "activeToggle",
      "outputs": [],
      "stateMutability": "nonpayable",
      "type": "function"
    },
    {
      "inputs": [
        {
          "internalType": "address",
          "name": "",
          "type": "address"
        }
      ],
      "name": "approvedAmount",
      "outputs": [
        {
          "internalType": "uint256",
          "name": "",
          "type": "uint256"
        }
      ],
      "stateMutability": "view",
      "type": "function"
    },
    {
      "inputs": [
        {
          "internalType": "uint256",
          "name": "",
          "type": "uint256"
        }
      ],
      "name": "claimedBurnAmount",
      "outputs": [
        {
          "internalType": "uint256",
          "name": "",
          "type": "uint256"
        }
      ],
      "stateMutability": "view",
      "type": "function"
    },
    {
      "inputs": [],
      "name": "getIndex",
      "outputs": [
        {
          "internalType": "uint256",
          "name": "index",
          "type": "uint256"
        }
      ],
      "stateMutability": "view",
      "type": "function"
    },
    {
      "inputs": [],
      "name": "getWhitelisted",
      "outputs": [
        {
          "internalType": "bool",
          "name": "whiteListed",
          "type": "bool"
        }
      ],
      "stateMutability": "view",
      "type": "function"
    },
    {
      "inputs": [
        {
          "internalType": "uint256",
          "name": "amount",
          "type": "uint256"
        }
      ],
      "name": "redeem",
      "outputs": [],
      "stateMutability": "payable",
      "type": "function"
    },
    {
      "inputs": [
        {
          "internalType": "address",
          "name": "tokenAddress",
          "type": "address"
        }
      ],
      "name": "setSpiceTokenAddress",
      "outputs": [],
      "stateMutability": "nonpayable",
      "type": "function"
    },
    {
      "inputs": [],
      "name": "updateClaimedBurnAmount",
      "outputs": [],
      "stateMutability": "nonpayable",
      "type": "function"
    },
    {
      "inputs": [
        {
          "internalType": "address[]",
          "name": "newWhitelist",
          "type": "address[]"
        }
      ],
      "name": "updateWhitelist",
      "outputs": [],
      "stateMutability": "nonpayable",
      "type": "function"
    },
    {
      "inputs": [
        {
          "internalType": "uint256",
          "name": "",
          "type": "uint256"
        }
      ],
      "name": "whiteList",
      "outputs": [
        {
          "internalType": "address",
          "name": "",
          "type": "address"
        }
      ],
      "stateMutability": "view",
      "type": "function"
    }
  ],
  "bytecode": {
    "object": "0x6000805460ff191690556445d964b800600190815560a0604052608081815261002b91600291906100a6565b506040805160208101909152620f4240815261004b90600390600161010b565b50600680546001600160a01b031990811661dead1790915560078054909116739b6db7597a74602a5a806e33408e7e2dafa5819317905534801561008e57600080fd5b50600480546001600160a01b03191633179055610162565b8280548282559060005260206000209081019282156100fb579160200282015b828111156100fb57825182546001600160a01b0319166001600160a01b039091161782556020909201916001909101906100c6565b5061010792915061014d565b5090565b8280548282559060005260206000209081019282156100fb579160200282015b828111156100fb578251829062ffffff1690559160200191906001019061012b565b5b80821115610107576000815560010161014e565b6108c8806101716000396000f3fe6080604052600436106100915760003560e01c80639b372b2b116100595780639b372b2b1461014d578063ac6a990f14610172578063db006a7514610187578063ee0446b21461019a578063f09535ad146101c757600080fd5b806321ea8eba1461009657806335377214146100ad5780635c475d42146100cd57806378087cc51461010a57806381045ead14610138575b600080fd5b3480156100a257600080fd5b506100ab610204565b005b3480156100b957600080fd5b506100ab6100c83660046106e9565b610239565b3480156100d957600080fd5b506100ed6100e83660046107ae565b61027a565b6040516001600160a01b0390911681526020015b60405180910390f35b34801561011657600080fd5b5061012a6101253660046107ae565b6102a4565b604051908152602001610101565b34801561014457600080fd5b5061012a6102c5565b34801561015957600080fd5b50610162610325565b6040519015158152602001610101565b34801561017e57600080fd5b506100ab61038c565b6100ab6101953660046107ae565b6103ca565b3480156101a657600080fd5b5061012a6101b53660046107c7565b60056020526000908152604090205481565b3480156101d357600080fd5b506100ab6101e23660046107c7565b600780546001600160a01b0319166001600160a01b0392909216919091179055565b6004546001600160a01b031633146102375760405162461bcd60e51b815260040161022e906107e9565b60405180910390fd5b565b6004546001600160a01b031633146102635760405162461bcd60e51b815260040161022e906107e9565b8051610276906002906020840190610646565b5050565b6002818154811061028a57600080fd5b6000918252602090912001546001600160a01b0316905081565b600381815481106102b457600080fd5b600091825260209091200154905081565b6000805b60025481101561032157336001600160a01b0316600282815481106102f0576102f061080c565b6000918252602090912001546001600160a01b03160361030f57919050565b8061031981610838565b9150506102c9565b5090565b6000805b60025481101561038457336001600160a01b0316600282815481106103505761035061080c565b6000918252602090912001546001600160a01b03160361037257600191505090565b8061037c81610838565b915050610329565b506000905090565b6004546001600160a01b031633146103b65760405162461bcd60e51b815260040161022e906107e9565b6000805460ff19811660ff90911615179055565b6103d2610325565b6104115760405162461bcd60e51b815260206004820152601060248201526f4e6f742057686974656c69737465642160801b604482015260640161022e565b600361041b6102c5565b8154811061042b5761042b61080c565b90600052602060002001548111156104955760405162461bcd60e51b815260206004820152602760248201527f416d6f756e742047726561746572207468616e20436c61696d6564204275726e60448201526608105b5bdd5b9d60ca1b606482015260840161022e565b6007546006546040516323b872dd60e01b81523360048201526001600160a01b0391821660248201526044810184905260009291909116906323b872dd906064016020604051808303816000875af11580156104f5573d6000803e3d6000fd5b505050506040513d601f19601f820116820180604052508101906105199190610851565b9050806105685760405162461bcd60e51b815260206004820152601860248201527f4661696c656420746f2052656365697665202453504943450000000000000000604482015260640161022e565b600080336001600160a01b0316600154856105839190610873565b604051600081818185875af1925050503d80600081146105bf576040519150601f19603f3d011682016040523d82523d6000602084013e6105c4565b606091505b50915091508161060d5760405162461bcd60e51b81526020600482015260146024820152732330b4b632b2103a379039b2b7321022ba3432b960611b604482015260640161022e565b60026106176102c5565b815481106106275761062761080c565b600091825260209091200180546001600160a01b031916905550505050565b82805482825590600052602060002090810192821561069b579160200282015b8281111561069b57825182546001600160a01b0319166001600160a01b03909116178255602090920191600190910190610666565b506103219291505b8082111561032157600081556001016106a3565b634e487b7160e01b600052604160045260246000fd5b80356001600160a01b03811681146106e457600080fd5b919050565b600060208083850312156106fc57600080fd5b823567ffffffffffffffff8082111561071457600080fd5b818501915085601f83011261072857600080fd5b81358181111561073a5761073a6106b7565b8060051b604051601f19603f8301168101818110858211171561075f5761075f6106b7565b60405291825284820192508381018501918883111561077d57600080fd5b938501935b828510156107a257610793856106cd565b84529385019392850192610782565b98975050505050505050565b6000602082840312156107c057600080fd5b5035919050565b6000602082840312156107d957600080fd5b6107e2826106cd565b9392505050565b6020808252600990820152682737ba1037bbb732b960b91b604082015260600190565b634e487b7160e01b600052603260045260246000fd5b634e487b7160e01b600052601160045260246000fd5b60006001820161084a5761084a610822565b5060010190565b60006020828403121561086357600080fd5b815180151581146107e257600080fd5b600081600019048311821515161561088d5761088d610822565b50029056fea26469706673582212203b70a42b6c6223a7b647673358905164697cca07e2ba769ab1cd951d2831a14864736f6c634300080d0033",
    "linkReferences": {}
  },
  "methodIdentifiers": {
    "activeToggle()": "ac6a990f",
    "approvedAmount(address)": "ee0446b2",
    "claimedBurnAmount(uint256)": "78087cc5",
    "getIndex()": "81045ead",
    "getWhitelisted()": "9b372b2b",
    "redeem(uint256)": "db006a75",
    "setSpiceTokenAddress(address)": "f09535ad",
    "updateClaimedBurnAmount()": "21ea8eba",
    "updateWhitelist(address[])": "35377214",
    "whiteList(uint256)": "5c475d42"
  },
  "id": 11
}